:020000040800F2
:10000000008001203104000877040008790400080A
:100010007B0400087D0400087F0400080000000045
:100020000000000000000000000000008104000843
:100030008304000800000000850400085102000845
:100040008B0400088D0400088F0400089104000848
:100050009304000895040008970400089904000818
:100060009B0400089D0400089F040008A1040008E8
:10007000A3040008A5040008A7040008A9040008B8
:10008000AB040008AD040008AF040008B104000888
:10009000B3040008B5040008B7040008B904000858
:1000A000BB040008BD040008BF040008C104000828
:1000B000C3040008C5040008C7040008C9040008F8
:1000C000CB040008CD040008CF040008D1040008C8
:1000D000D3040008D5040008D7040008D904000898
:1000E000DB040008DD040008DF040008E104000868
:1000F000E3040008E5040008E7040008E904000838
:10010000EB040008ED040008EF040008F104000807
:10011000F3040008F5040008F7040008F9040008D7
:10012000FB040008FD040008FF04000801050008A6
:100130000305000805050008070500080905000873
:100140000B0500080D0500080F0500081105000843
:100150001305000815050008170500081905000813
:100160001B0500081D0500081F05000821050008E3
:1001700023050008250500082705000829050008B3
:100180002B0500082D05000810B5054C237833B960
:10019000044B13B10448AFF300800123237010BD5A
:1001A0007C00002000000000AC07000808B5064BEA
:1001B0001BB106480649AFF300800648036813B137
:1001C000054B03B1984708BD00000000AC070008CC
:1001D000800000207C00002000000000154B002B58
:1001E00008BF134B9D46A3F5803A00218B460F466E
:1001F0001348144A121A00F0B7FA0F4B002B00D024
:1002000098470E4B002B00D0984700200021040097
:100210000D000D48002802D00C48AFF3008000F01C
:100220007DFA2000290000F037F800F063FA00BFE3
:100230000000080000800120000000000000000015
:100240007C0000209C000020000000000000000056
:1002500040F29803C2F200031A6801321A60704734
:100260004FF46052C4F202020023116BC4F2020385
:1002700041F0010111631A6822F003021A609A68C2
:1002800022F003029A609A6842F002029A60DA68E9
:1002900022F00302DA6070472DE9F04100F0E0F946
:1002A000324B334C196844F6D353C1F26203A3FBBB
:1002B00001214EF21003CEF200034FF46D42890982
:1002C000CEF2000201395960F02182F82310002299
:1002D0009A6007221A6000F04DF8FFF7C1FF00276F
:1002E00001264FF0FF35C4F202073B69DB0723D438
:1002F000AD19042D2ED0002DA8BFA84630DB4046F6
:1003000000F062F8226823689B1A312B04D800BFE2
:1003100023689B1A312BFAD9404600F063F8226813
:1003200023689B1AC72BE0D800BF23689B1AC72BF2
:10033000FAD93B69DB07DBD50F2000F061F82268B2
:1003400023689B1A092BD0D800BF23689B1A092B5E
:10035000FAD9CAE74FF003084FF0FF364546CEE71B
:100360004FF0000801264546C9E700BF10000020F5
:10037000980000204FF46052C4F202024FF4406330
:10038000116BC4F2020341F0080111631A6822F0F4
:100390007F421A601A6842F0AA421A605A6822F430
:1003A00070425A609A6822F07F429A609A6842F0DE
:1003B0002A429A60DA6822F07F42DA60DA6842F014
:1003C000AA42DA60704700BF03289FBF044A4FF477
:1003D000406332F82020C4F2020398BF1A837047AA
:1003E0009407000803289FBF044A4FF4406332F883
:1003F0002020C4F2020398BF5A8370479407000874
:1004000070B400224FF44064084D13460126C4F234
:10041000020406FA03F10142A95A14BF2183618341
:1004200001330432042BF4D170BC704794070008E8
:100430000649074A074B9A42BEBF51F8040B42F8DF
:10044000040BF8E70448804704480047B807000851
:10045000000000207C00002039050008DD010008B4
:100460003349344A002301E041F8043B9142FBD375
:10047000FFF712FFFEE7FEE7FEE7FEE7FEE7FEE717
:10048000FEE7FEE7FEE7FEE7FEE7FEE7FEE7FEE744
:10049000FEE7FEE7FEE7FEE7FEE7FEE7FEE7FEE734
:1004A000FEE7FEE7FEE7FEE7FEE7FEE7FEE7FEE724
:1004B000FEE7FEE7FEE7FEE7FEE7FEE7FEE7FEE714
:1004C000FEE7FEE7FEE7FEE7FEE7FEE7FEE7FEE704
:1004D000FEE7FEE7FEE7FEE7FEE7FEE7FEE7FEE7F4
:1004E000FEE7FEE7FEE7FEE7FEE7FEE7FEE7FEE7E4
:1004F000FEE7FEE7FEE7FEE7FEE7FEE7FEE7FEE7D4
:10050000FEE7FEE7FEE7FEE7FEE7FEE7FEE7FEE7C3
:10051000FEE7FEE7FEE7FEE7FEE7FEE7FEE7FEE7B3
:10052000FEE7FEE7FEE7FEE7FEE7FEE7FEE7000088
:100530007C0000209C0000204FF46D42CEF20002AF
:100540004FF46053D2F88810C4F2020341F47001F2
:10055000C2F888101968002241F0010119609A6000
:10056000186843F2100120F08470C2F2004120F4B8
:10057000803018605960196882B021F480211960B8
:10058000DA60009201921A6842F480321A601A46C8
:1005900003E0009BB3F5C06F09D0136803F4003388
:1005A0000193009B01330093019B002BF1D04FF48A
:1005B0006053C4F202031B6813F4003308BF0193B5
:1005C00001D001230193019B012B08D04FF46D430F
:1005D000CEF200034FF000629A6002B070474FF411
:1005E0006053C4F202034FF4E042196CC4F20002FB
:1005F00041F080511964116841F4804111609A689A
:100600009A609A6842F400429A60996845F21942E9
:1006100041F4A051C0F2407299605A601A6842F0E9
:1006200080721A6019460A684FF460539201C4F24E
:100630000203F8D54FF47052C4F2020240F2057181
:1006400011609A6822F003029A609A6842F00202EE
:100650009A609A6802F00C02082AFAD1B6E700BF45
:100660004FF46053C4F202039A6802F00C02042AA9
:1006700014D0082A1CBF4FF41052C0F2F40212D05A
:100680004FF46053C4F2020318499B68C3F3031389
:10069000CB5C22FA03F2164B1A60704747F6400211
:1006A000C0F27D12ECE75868596810F4800F586862
:1006B00015BF47F640034FF41053C0F27D13C0F24C
:1006C000F40301F03F01B3FBF1F24FF46053C4F2C5
:1006D0000203C0F388105B68C3F30143013302FBDC
:1006E00000F25B00B2FBF3F2CAE700BF000000209B
:1006F0001000002008B5074B044613B10021AFF3EA
:100700000080054B1868836A03B19847204600F0C3
:1007100033F800BF00000000A807000870B50E4BBA
:100720000E4DED1AAD1000241E4603E056F82420AD
:1007300090470134AC42F9D100F020F8084D094B44
:10074000ED1AAD1000241E4603E056F82420904711
:100750000134AC42F9D170BD740000207400002057
:1007600078000020740000208218034601E003F89E
:10077000011B9342FBD17047FEE700BFF8B500BFF5
:10078000F8BC08BC9E467047F8B500BFF8BC08BC72
:100790009E4670470010000000200000004000004E
:1007A0000080000043000000140000200000000052
:0807B0002CFAFF7F010000009C
:1007B8000000000000000000010203040607080909
:1007C800007A030A0000000000000000000000009A
:1007D8000000000000000000000000000000000011
:1007E80000000000A407000800000000000000004E
:1007F80000000000000000000000000000000000F1
:1008080000000000000000000000000000000000E0
:1008180000000000000000000000000000000000D0
:0C08280000000000AD010008890100087C
:0400000508000000EF
:00000001FF
